{
  "_format": "hh-sol-artifact-1",
  "contractName": "LilacNFT",
  "sourceName": "contracts/LilacNFT.sol",
  "abi": [
    {
      "inputs": [],
      "stateMutability": "nonpayable",
      "type": "constructor"
    },
    {
      "inputs": [
        {
          "internalType": "address",
          "name": "sender",
          "type": "address"
        },
        {
          "internalType": "uint256",
          "name": "tokenId",
          "type": "uint256"
        },
        {
          "internalType": "address",
          "name": "owner",
          "type": "address"
        }
      ],
      "name": "ERC721IncorrectOwner",
      "type": "error"
    },
    {
      "inputs": [
        {
          "internalType": "address",
          "name": "operator",
          "type": "address"
        },
        {
          "internalType": "uint256",
          "name": "tokenId",
          "type": "uint256"
        }
      ],
      "name": "ERC721InsufficientApproval",
      "type": "error"
    },
    {
      "inputs": [
        {
          "internalType": "address",
          "name": "approver",
          "type": "address"
        }
      ],
      "name": "ERC721InvalidApprover",
      "type": "error"
    },
    {
      "inputs": [
        {
          "internalType": "address",
          "name": "operator",
          "type": "address"
        }
      ],
      "name": "ERC721InvalidOperator",
      "type": "error"
    },
    {
      "inputs": [
        {
          "internalType": "address",
          "name": "owner",
          "type": "address"
        }
      ],
      "name": "ERC721InvalidOwner",
      "type": "error"
    },
    {
      "inputs": [
        {
          "internalType": "address",
          "name": "receiver",
          "type": "address"
        }
      ],
      "name": "ERC721InvalidReceiver",
      "type": "error"
    },
    {
      "inputs": [
        {
          "internalType": "address",
          "name": "sender",
          "type": "address"
        }
      ],
      "name": "ERC721InvalidSender",
      "type": "error"
    },
    {
      "inputs": [
        {
          "internalType": "uint256",
          "name": "tokenId",
          "type": "uint256"
        }
      ],
      "name": "ERC721NonexistentToken",
      "type": "error"
    },
    {
      "anonymous": false,
      "inputs": [
        {
          "indexed": true,
          "internalType": "address",
          "name": "owner",
          "type": "address"
        },
        {
          "indexed": true,
          "internalType": "address",
          "name": "approved",
          "type": "address"
        },
        {
          "indexed": true,
          "internalType": "uint256",
          "name": "tokenId",
          "type": "uint256"
        }
      ],
      "name": "Approval",
      "type": "event"
    },
    {
      "anonymous": false,
      "inputs": [
        {
          "indexed": true,
          "internalType": "address",
          "name": "owner",
          "type": "address"
        },
        {
          "indexed": true,
          "internalType": "address",
          "name": "operator",
          "type": "address"
        },
        {
          "indexed": false,
          "internalType": "bool",
          "name": "approved",
          "type": "bool"
        }
      ],
      "name": "ApprovalForAll",
      "type": "event"
    },
    {
      "anonymous": false,
      "inputs": [
        {
          "indexed": false,
          "internalType": "uint256",
          "name": "_fromTokenId",
          "type": "uint256"
        },
        {
          "indexed": false,
          "internalType": "uint256",
          "name": "_toTokenId",
          "type": "uint256"
        }
      ],
      "name": "BatchMetadataUpdate",
      "type": "event"
    },
    {
      "anonymous": false,
      "inputs": [
        {
          "indexed": false,
          "internalType": "uint256",
          "name": "_tokenId",
          "type": "uint256"
        }
      ],
      "name": "MetadataUpdate",
      "type": "event"
    },
    {
      "anonymous": false,
      "inputs": [
        {
          "indexed": true,
          "internalType": "address",
          "name": "from",
          "type": "address"
        },
        {
          "indexed": true,
          "internalType": "address",
          "name": "to",
          "type": "address"
        },
        {
          "indexed": true,
          "internalType": "uint256",
          "name": "tokenId",
          "type": "uint256"
        }
      ],
      "name": "Transfer",
      "type": "event"
    },
    {
      "inputs": [
        {
          "internalType": "address",
          "name": "to",
          "type": "address"
        },
        {
          "internalType": "uint256",
          "name": "tokenId",
          "type": "uint256"
        }
      ],
      "name": "approve",
      "outputs": [],
      "stateMutability": "nonpayable",
      "type": "function"
    },
    {
      "inputs": [
        {
          "internalType": "address",
          "name": "owner",
          "type": "address"
        }
      ],
      "name": "balanceOf",
      "outputs": [
        {
          "internalType": "uint256",
          "name": "",
          "type": "uint256"
        }
      ],
      "stateMutability": "view",
      "type": "function"
    },
    {
      "inputs": [
        {
          "internalType": "uint256",
          "name": "tokenId",
          "type": "uint256"
        }
      ],
      "name": "getApproved",
      "outputs": [
        {
          "internalType": "address",
          "name": "",
          "type": "address"
        }
      ],
      "stateMutability": "view",
      "type": "function"
    },
    {
      "inputs": [
        {
          "internalType": "address",
          "name": "owner",
          "type": "address"
        },
        {
          "internalType": "address",
          "name": "operator",
          "type": "address"
        }
      ],
      "name": "isApprovedForAll",
      "outputs": [
        {
          "internalType": "bool",
          "name": "",
          "type": "bool"
        }
      ],
      "stateMutability": "view",
      "type": "function"
    },
    {
      "inputs": [
        {
          "internalType": "string",
          "name": "_tokenURI",
          "type": "string"
        }
      ],
      "name": "mintNFT",
      "outputs": [],
      "stateMutability": "nonpayable",
      "type": "function"
    },
    {
      "inputs": [],
      "name": "name",
      "outputs": [
        {
          "internalType": "string",
          "name": "",
          "type": "string"
        }
      ],
      "stateMutability": "view",
      "type": "function"
    },
    {
      "inputs": [
        {
          "internalType": "uint256",
          "name": "tokenId",
          "type": "uint256"
        }
      ],
      "name": "ownerOf",
      "outputs": [
        {
          "internalType": "address",
          "name": "",
          "type": "address"
        }
      ],
      "stateMutability": "view",
      "type": "function"
    },
    {
      "inputs": [
        {
          "internalType": "address",
          "name": "from",
          "type": "address"
        },
        {
          "internalType": "address",
          "name": "to",
          "type": "address"
        },
        {
          "internalType": "uint256",
          "name": "tokenId",
          "type": "uint256"
        }
      ],
      "name": "safeTransferFrom",
      "outputs": [],
      "stateMutability": "nonpayable",
      "type": "function"
    },
    {
      "inputs": [
        {
          "internalType": "address",
          "name": "from",
          "type": "address"
        },
        {
          "internalType": "address",
          "name": "to",
          "type": "address"
        },
        {
          "internalType": "uint256",
          "name": "tokenId",
          "type": "uint256"
        },
        {
          "internalType": "bytes",
          "name": "data",
          "type": "bytes"
        }
      ],
      "name": "safeTransferFrom",
      "outputs": [],
      "stateMutability": "nonpayable",
      "type": "function"
    },
    {
      "inputs": [
        {
          "internalType": "address",
          "name": "operator",
          "type": "address"
        },
        {
          "internalType": "bool",
          "name": "approved",
          "type": "bool"
        }
      ],
      "name": "setApprovalForAll",
      "outputs": [],
      "stateMutability": "nonpayable",
      "type": "function"
    },
    {
      "inputs": [
        {
          "internalType": "bytes4",
          "name": "interfaceId",
          "type": "bytes4"
        }
      ],
      "name": "supportsInterface",
      "outputs": [
        {
          "internalType": "bool",
          "name": "",
          "type": "bool"
        }
      ],
      "stateMutability": "view",
      "type": "function"
    },
    {
      "inputs": [],
      "name": "symbol",
      "outputs": [
        {
          "internalType": "string",
          "name": "",
          "type": "string"
        }
      ],
      "stateMutability": "view",
      "type": "function"
    },
    {
      "inputs": [],
      "name": "tokenCount",
      "outputs": [
        {
          "internalType": "uint256",
          "name": "",
          "type": "uint256"
        }
      ],
      "stateMutability": "view",
      "type": "function"
    },
    {
      "inputs": [
        {
          "internalType": "uint256",
          "name": "tokenId",
          "type": "uint256"
        }
      ],
      "name": "tokenURI",
      "outputs": [
        {
          "internalType": "string",
          "name": "",
          "type": "string"
        }
      ],
      "stateMutability": "view",
      "type": "function"
    },
    {
      "inputs": [
        {
          "internalType": "address",
          "name": "from",
          "type": "address"
        },
        {
          "internalType": "address",
          "name": "to",
          "type": "address"
        },
        {
          "internalType": "uint256",
          "name": "tokenId",
          "type": "uint256"
        }
      ],
      "name": "transferFrom",
      "outputs": [],
      "stateMutability": "nonpayable",
      "type": "function"
    }
  ],
  "bytecode": "0x60806040523480156200001157600080fd5b506040518060400160405280600581526020017f4c696c61630000000000000000000000000000000000000000000000000000008152506040518060400160405280600581526020017f4c494c414300000000000000000000000000000000000000000000000000000081525081600090816200008f919062000324565b508060019081620000a1919062000324565b5050506200040b565b600081519050919050565b7f4e487b7100000000000000000000000000000000000000000000000000000000600052604160045260246000fd5b7f4e487b7100000000000000000000000000000000000000000000000000000000600052602260045260246000fd5b600060028204905060018216806200012c57607f821691505b602082108103620001425762000141620000e4565b5b50919050565b60008190508160005260206000209050919050565b60006020601f8301049050919050565b600082821b905092915050565b600060088302620001ac7fffffffffffffffffffffffffffffffffffffffffffffffffffffffffffffffff826200016d565b620001b886836200016d565b95508019841693508086168417925050509392505050565b6000819050919050565b6000819050919050565b600062000205620001ff620001f984620001d0565b620001da565b620001d0565b9050919050565b6000819050919050565b6200022183620001e4565b6200023962000230826200020c565b8484546200017a565b825550505050565b600090565b6200025062000241565b6200025d81848462000216565b505050565b5b8181101562000285576200027960008262000246565b60018101905062000263565b5050565b601f821115620002d4576200029e8162000148565b620002a9846200015d565b81016020851015620002b9578190505b620002d1620002c8856200015d565b83018262000262565b50505b505050565b600082821c905092915050565b6000620002f960001984600802620002d9565b1980831691505092915050565b6000620003148383620002e6565b9150826002028217905092915050565b6200032f82620000aa565b67ffffffffffffffff8111156200034b576200034a620000b5565b5b62000357825462000113565b6200036482828562000289565b600060209050601f8311600181146200039c576000841562000387578287015190505b62000393858262000306565b86555062000403565b601f198416620003ac8662000148565b60005b82811015620003d657848901518255600182019150602085019450602081019050620003af565b86831015620003f65784890151620003f2601f891682620002e6565b8355505b6001600288020188555050505b505050505050565b612401806200041b6000396000f3fe608060405234801561001057600080fd5b50600436106100f55760003560e01c806370a0823111610097578063b88d4fde11610066578063b88d4fde14610284578063c87b56dd146102a0578063e985e9c5146102d0578063fb37e88314610300576100f5565b806370a08231146101fc57806395d89b411461022c5780639f181b5e1461024a578063a22cb46514610268576100f5565b8063095ea7b3116100d3578063095ea7b31461017857806323b872dd1461019457806342842e0e146101b05780636352211e146101cc576100f5565b806301ffc9a7146100fa57806306fdde031461012a578063081812fc14610148575b600080fd5b610114600480360381019061010f919061186c565b61031c565b60405161012191906118b4565b60405180910390f35b61013261037d565b60405161013f919061195f565b60405180910390f35b610162600480360381019061015d91906119b7565b61040f565b60405161016f9190611a25565b60405180910390f35b610192600480360381019061018d9190611a6c565b61042b565b005b6101ae60048036038101906101a99190611aac565b610441565b005b6101ca60048036038101906101c59190611aac565b610543565b005b6101e660048036038101906101e191906119b7565b610563565b6040516101f39190611a25565b60405180910390f35b61021660048036038101906102119190611aff565b610575565b6040516102239190611b3b565b60405180910390f35b61023461062f565b604051610241919061195f565b60405180910390f35b6102526106c1565b60405161025f9190611b3b565b60405180910390f35b610282600480360381019061027d9190611b82565b6106c7565b005b61029e60048036038101906102999190611cf7565b6106dd565b005b6102ba60048036038101906102b591906119b7565b610702565b6040516102c7919061195f565b60405180910390f35b6102ea60048036038101906102e59190611d7a565b610815565b6040516102f791906118b4565b60405180910390f35b61031a60048036038101906103159190611e5b565b6108a9565b005b6000634906490660e01b7bffffffffffffffffffffffffffffffffffffffffffffffffffffffff1916827bffffffffffffffffffffffffffffffffffffffffffffffffffffffff191614806103765750610375826108dc565b5b9050919050565b60606000805461038c90611ed3565b80601f01602080910402602001604051908101604052809291908181526020018280546103b890611ed3565b80156104055780601f106103da57610100808354040283529160200191610405565b820191906000526020600020905b8154815290600101906020018083116103e857829003601f168201915b5050505050905090565b600061041a826109be565b5061042482610a46565b9050919050565b61043d8282610438610a83565b610a8b565b5050565b600073ffffffffffffffffffffffffffffffffffffffff168273ffffffffffffffffffffffffffffffffffffffff16036104b35760006040517f64a0ae920000000000000000000000000000000000000000000000000000000081526004016104aa9190611a25565b60405180910390fd5b60006104c783836104c2610a83565b610a9d565b90508373ffffffffffffffffffffffffffffffffffffffff168173ffffffffffffffffffffffffffffffffffffffff161461053d578382826040517f64283d7b00000000000000000000000000000000000000000000000000000000815260040161053493929190611f04565b60405180910390fd5b50505050565b61055e838383604051806020016040528060008152506106dd565b505050565b600061056e826109be565b9050919050565b60008073ffffffffffffffffffffffffffffffffffffffff168273ffffffffffffffffffffffffffffffffffffffff16036105e85760006040517f89c62b640000000000000000000000000000000000000000000000000000000081526004016105df9190611a25565b60405180910390fd5b600360008373ffffffffffffffffffffffffffffffffffffffff1673ffffffffffffffffffffffffffffffffffffffff168152602001908152602001600020549050919050565b60606001805461063e90611ed3565b80601f016020809104026020016040519081016040528092919081815260200182805461066a90611ed3565b80156106b75780601f1061068c576101008083540402835291602001916106b7565b820191906000526020600020905b81548152906001019060200180831161069a57829003601f168201915b5050505050905090565b60075481565b6106d96106d2610a83565b8383610cb7565b5050565b6106e8848484610441565b6106fc6106f3610a83565b85858585610e26565b50505050565b606061070d826109be565b50600060066000848152602001908152602001600020805461072e90611ed3565b80601f016020809104026020016040519081016040528092919081815260200182805461075a90611ed3565b80156107a75780601f1061077c576101008083540402835291602001916107a7565b820191906000526020600020905b81548152906001019060200180831161078a57829003601f168201915b5050505050905060006107b8610fd7565b905060008151036107cd578192505050610810565b6000825111156108025780826040516020016107ea929190611f77565b60405160208183030381529060405292505050610810565b61080b84610fee565b925050505b919050565b6000600560008473ffffffffffffffffffffffffffffffffffffffff1673ffffffffffffffffffffffffffffffffffffffff16815260200190815260200160002060008373ffffffffffffffffffffffffffffffffffffffff1673ffffffffffffffffffffffffffffffffffffffff16815260200190815260200160002060009054906101000a900460ff16905092915050565b600760008154809291906108bc90611fca565b91905055506108cd33600754611057565b6108d960075482611075565b50565b60007f80ac58cd000000000000000000000000000000000000000000000000000000007bffffffffffffffffffffffffffffffffffffffffffffffffffffffff1916827bffffffffffffffffffffffffffffffffffffffffffffffffffffffff191614806109a757507f5b5e139f000000000000000000000000000000000000000000000000000000007bffffffffffffffffffffffffffffffffffffffffffffffffffffffff1916827bffffffffffffffffffffffffffffffffffffffffffffffffffffffff1916145b806109b757506109b6826110d1565b5b9050919050565b6000806109ca8361113b565b9050600073ffffffffffffffffffffffffffffffffffffffff168173ffffffffffffffffffffffffffffffffffffffff1603610a3d57826040517f7e273289000000000000000000000000000000000000000000000000000000008152600401610a349190611b3b565b60405180910390fd5b80915050919050565b60006004600083815260200190815260200160002060009054906101000a900473ffffffffffffffffffffffffffffffffffffffff169050919050565b600033905090565b610a988383836001611178565b505050565b600080610aa98461113b565b9050600073ffffffffffffffffffffffffffffffffffffffff168373ffffffffffffffffffffffffffffffffffffffff1614610aeb57610aea81848661133d565b5b600073ffffffffffffffffffffffffffffffffffffffff168173ffffffffffffffffffffffffffffffffffffffff1614610b7c57610b2d600085600080611178565b6001600360008373ffffffffffffffffffffffffffffffffffffffff1673ffffffffffffffffffffffffffffffffffffffff168152602001908152602001600020600082825403925050819055505b600073ffffffffffffffffffffffffffffffffffffffff168573ffffffffffffffffffffffffffffffffffffffff1614610bff576001600360008773ffffffffffffffffffffffffffffffffffffffff1673ffffffffffffffffffffffffffffffffffffffff168152602001908152602001600020600082825401925050819055505b846002600086815260200190815260200160002060006101000a81548173ffffffffffffffffffffffffffffffffffffffff021916908373ffffffffffffffffffffffffffffffffffffffff160217905550838573ffffffffffffffffffffffffffffffffffffffff168273ffffffffffffffffffffffffffffffffffffffff167fddf252ad1be2c89b69c2b068fc378daa952ba7f163c4a11628f55a4df523b3ef60405160405180910390a4809150509392505050565b600073ffffffffffffffffffffffffffffffffffffffff168273ffffffffffffffffffffffffffffffffffffffff1603610d2857816040517f5b08ba18000000000000000000000000000000000000000000000000000000008152600401610d1f9190611a25565b60405180910390fd5b80600560008573ffffffffffffffffffffffffffffffffffffffff1673ffffffffffffffffffffffffffffffffffffffff16815260200190815260200160002060008473ffffffffffffffffffffffffffffffffffffffff1673ffffffffffffffffffffffffffffffffffffffff16815260200190815260200160002060006101000a81548160ff0219169083151502179055508173ffffffffffffffffffffffffffffffffffffffff168373ffffffffffffffffffffffffffffffffffffffff167f17307eab39ab6107e8899845ad3d59bd9653f200f220920489ca2b5937696c3183604051610e1991906118b4565b60405180910390a3505050565b60008373ffffffffffffffffffffffffffffffffffffffff163b1115610fd0578273ffffffffffffffffffffffffffffffffffffffff1663150b7a02868685856040518563ffffffff1660e01b8152600401610e859493929190612067565b6020604051808303816000875af1925050508015610ec157506040513d601f19601f82011682018060405250810190610ebe91906120c8565b60015b610f45573d8060008114610ef1576040519150601f19603f3d011682016040523d82523d6000602084013e610ef6565b606091505b506000815103610f3d57836040517f64a0ae92000000000000000000000000000000000000000000000000000000008152600401610f349190611a25565b60405180910390fd5b805160208201fd5b63150b7a0260e01b7bffffffffffffffffffffffffffffffffffffffffffffffffffffffff1916817bffffffffffffffffffffffffffffffffffffffffffffffffffffffff191614610fce57836040517f64a0ae92000000000000000000000000000000000000000000000000000000008152600401610fc59190611a25565b60405180910390fd5b505b5050505050565b606060405180602001604052806000815250905090565b6060610ff9826109be565b506000611004610fd7565b90506000815111611024576040518060200160405280600081525061104f565b8061102e84611401565b60405160200161103f929190611f77565b6040516020818303038152906040525b915050919050565b6110718282604051806020016040528060008152506114cf565b5050565b8060066000848152602001908152602001600020908161109591906122a1565b507ff8e1a15aba9398e019f0b49df1a4fde98ee17ae345cb5f6b5e2c27f5033e8ce7826040516110c59190611b3b565b60405180910390a15050565b60007f01ffc9a7000000000000000000000000000000000000000000000000000000007bffffffffffffffffffffffffffffffffffffffffffffffffffffffff1916827bffffffffffffffffffffffffffffffffffffffffffffffffffffffff1916149050919050565b60006002600083815260200190815260200160002060009054906101000a900473ffffffffffffffffffffffffffffffffffffffff169050919050565b80806111b15750600073ffffffffffffffffffffffffffffffffffffffff168273ffffffffffffffffffffffffffffffffffffffff1614155b156112e55760006111c1846109be565b9050600073ffffffffffffffffffffffffffffffffffffffff168373ffffffffffffffffffffffffffffffffffffffff161415801561122c57508273ffffffffffffffffffffffffffffffffffffffff168173ffffffffffffffffffffffffffffffffffffffff1614155b801561123f575061123d8184610815565b155b1561128157826040517fa9fbf51f0000000000000000000000000000000000000000000000000000000081526004016112789190611a25565b60405180910390fd5b81156112e357838573ffffffffffffffffffffffffffffffffffffffff168273ffffffffffffffffffffffffffffffffffffffff167f8c5be1e5ebec7d5bd14f71427d1e84f3dd0314c0f7b2291e5b200ac8c7c3b92560405160405180910390a45b505b836004600085815260200190815260200160002060006101000a81548173ffffffffffffffffffffffffffffffffffffffff021916908373ffffffffffffffffffffffffffffffffffffffff16021790555050505050565b6113488383836114f3565b6113fc57600073ffffffffffffffffffffffffffffffffffffffff168373ffffffffffffffffffffffffffffffffffffffff16036113bd57806040517f7e2732890000000000000000000000000000000000000000000000000000000081526004016113b49190611b3b565b60405180910390fd5b81816040517f177e802f0000000000000000000000000000000000000000000000000000000081526004016113f3929190612373565b60405180910390fd5b505050565b606060006001611410846115b4565b01905060008167ffffffffffffffff81111561142f5761142e611bcc565b5b6040519080825280601f01601f1916602001820160405280156114615781602001600182028036833780820191505090505b509050600082602083010190505b6001156114c4578080600190039150507f3031323334353637383961626364656600000000000000000000000000000000600a86061a8153600a85816114b8576114b761239c565b5b0494506000850361146f575b819350505050919050565b6114d98383611707565b6114ee6114e4610a83565b6000858585610e26565b505050565b60008073ffffffffffffffffffffffffffffffffffffffff168373ffffffffffffffffffffffffffffffffffffffff16141580156115ab57508273ffffffffffffffffffffffffffffffffffffffff168473ffffffffffffffffffffffffffffffffffffffff16148061156c575061156b8484610815565b5b806115aa57508273ffffffffffffffffffffffffffffffffffffffff1661159283610a46565b73ffffffffffffffffffffffffffffffffffffffff16145b5b90509392505050565b600080600090507a184f03e93ff9f4daa797ed6e38ed64bf6a1f0100000000000000008310611612577a184f03e93ff9f4daa797ed6e38ed64bf6a1f01000000000000000083816116085761160761239c565b5b0492506040810190505b6d04ee2d6d415b85acef8100000000831061164f576d04ee2d6d415b85acef810000000083816116455761164461239c565b5b0492506020810190505b662386f26fc10000831061167e57662386f26fc1000083816116745761167361239c565b5b0492506010810190505b6305f5e10083106116a7576305f5e100838161169d5761169c61239c565b5b0492506008810190505b61271083106116cc5761271083816116c2576116c161239c565b5b0492506004810190505b606483106116ef57606483816116e5576116e461239c565b5b0492506002810190505b600a83106116fe576001810190505b80915050919050565b600073ffffffffffffffffffffffffffffffffffffffff168273ffffffffffffffffffffffffffffffffffffffff16036117795760006040517f64a0ae920000000000000000000000000000000000000000000000000000000081526004016117709190611a25565b60405180910390fd5b600061178783836000610a9d565b9050600073ffffffffffffffffffffffffffffffffffffffff168173ffffffffffffffffffffffffffffffffffffffff16146117fb5760006040517f73c6ac6e0000000000000000000000000000000000000000000000000000000081526004016117f29190611a25565b60405180910390fd5b505050565b6000604051905090565b600080fd5b600080fd5b60007fffffffff0000000000000000000000000000000000000000000000000000000082169050919050565b61184981611814565b811461185457600080fd5b50565b60008135905061186681611840565b92915050565b6000602082840312156118825761188161180a565b5b600061189084828501611857565b91505092915050565b60008115159050919050565b6118ae81611899565b82525050565b60006020820190506118c960008301846118a5565b92915050565b600081519050919050565b600082825260208201905092915050565b60005b838110156119095780820151818401526020810190506118ee565b60008484015250505050565b6000601f19601f8301169050919050565b6000611931826118cf565b61193b81856118da565b935061194b8185602086016118eb565b61195481611915565b840191505092915050565b600060208201905081810360008301526119798184611926565b905092915050565b6000819050919050565b61199481611981565b811461199f57600080fd5b50565b6000813590506119b18161198b565b92915050565b6000602082840312156119cd576119cc61180a565b5b60006119db848285016119a2565b91505092915050565b600073ffffffffffffffffffffffffffffffffffffffff82169050919050565b6000611a0f826119e4565b9050919050565b611a1f81611a04565b82525050565b6000602082019050611a3a6000830184611a16565b92915050565b611a4981611a04565b8114611a5457600080fd5b50565b600081359050611a6681611a40565b92915050565b60008060408385031215611a8357611a8261180a565b5b6000611a9185828601611a57565b9250506020611aa2858286016119a2565b9150509250929050565b600080600060608486031215611ac557611ac461180a565b5b6000611ad386828701611a57565b9350506020611ae486828701611a57565b9250506040611af5868287016119a2565b9150509250925092565b600060208284031215611b1557611b1461180a565b5b6000611b2384828501611a57565b91505092915050565b611b3581611981565b82525050565b6000602082019050611b506000830184611b2c565b92915050565b611b5f81611899565b8114611b6a57600080fd5b50565b600081359050611b7c81611b56565b92915050565b60008060408385031215611b9957611b9861180a565b5b6000611ba785828601611a57565b9250506020611bb885828601611b6d565b9150509250929050565b600080fd5b600080fd5b7f4e487b7100000000000000000000000000000000000000000000000000000000600052604160045260246000fd5b611c0482611915565b810181811067ffffffffffffffff82111715611c2357611c22611bcc565b5b80604052505050565b6000611c36611800565b9050611c428282611bfb565b919050565b600067ffffffffffffffff821115611c6257611c61611bcc565b5b611c6b82611915565b9050602081019050919050565b82818337600083830152505050565b6000611c9a611c9584611c47565b611c2c565b905082815260208101848484011115611cb657611cb5611bc7565b5b611cc1848285611c78565b509392505050565b600082601f830112611cde57611cdd611bc2565b5b8135611cee848260208601611c87565b91505092915050565b60008060008060808587031215611d1157611d1061180a565b5b6000611d1f87828801611a57565b9450506020611d3087828801611a57565b9350506040611d41878288016119a2565b925050606085013567ffffffffffffffff811115611d6257611d6161180f565b5b611d6e87828801611cc9565b91505092959194509250565b60008060408385031215611d9157611d9061180a565b5b6000611d9f85828601611a57565b9250506020611db085828601611a57565b9150509250929050565b600067ffffffffffffffff821115611dd557611dd4611bcc565b5b611dde82611915565b9050602081019050919050565b6000611dfe611df984611dba565b611c2c565b905082815260208101848484011115611e1a57611e19611bc7565b5b611e25848285611c78565b509392505050565b600082601f830112611e4257611e41611bc2565b5b8135611e52848260208601611deb565b91505092915050565b600060208284031215611e7157611e7061180a565b5b600082013567ffffffffffffffff811115611e8f57611e8e61180f565b5b611e9b84828501611e2d565b91505092915050565b7f4e487b7100000000000000000000000000000000000000000000000000000000600052602260045260246000fd5b60006002820490506001821680611eeb57607f821691505b602082108103611efe57611efd611ea4565b5b50919050565b6000606082019050611f196000830186611a16565b611f266020830185611b2c565b611f336040830184611a16565b949350505050565b600081905092915050565b6000611f51826118cf565b611f5b8185611f3b565b9350611f6b8185602086016118eb565b80840191505092915050565b6000611f838285611f46565b9150611f8f8284611f46565b91508190509392505050565b7f4e487b7100000000000000000000000000000000000000000000000000000000600052601160045260246000fd5b6000611fd582611981565b91507fffffffffffffffffffffffffffffffffffffffffffffffffffffffffffffffff820361200757612006611f9b565b5b600182019050919050565b600081519050919050565b600082825260208201905092915050565b600061203982612012565b612043818561201d565b93506120538185602086016118eb565b61205c81611915565b840191505092915050565b600060808201905061207c6000830187611a16565b6120896020830186611a16565b6120966040830185611b2c565b81810360608301526120a8818461202e565b905095945050505050565b6000815190506120c281611840565b92915050565b6000602082840312156120de576120dd61180a565b5b60006120ec848285016120b3565b91505092915050565b60008190508160005260206000209050919050565b60006020601f8301049050919050565b600082821b905092915050565b6000600883026121577fffffffffffffffffffffffffffffffffffffffffffffffffffffffffffffffff8261211a565b612161868361211a565b95508019841693508086168417925050509392505050565b6000819050919050565b600061219e61219961219484611981565b612179565b611981565b9050919050565b6000819050919050565b6121b883612183565b6121cc6121c4826121a5565b848454612127565b825550505050565b600090565b6121e16121d4565b6121ec8184846121af565b505050565b5b81811015612210576122056000826121d9565b6001810190506121f2565b5050565b601f82111561225557612226816120f5565b61222f8461210a565b8101602085101561223e578190505b61225261224a8561210a565b8301826121f1565b50505b505050565b600082821c905092915050565b60006122786000198460080261225a565b1980831691505092915050565b60006122918383612267565b9150826002028217905092915050565b6122aa826118cf565b67ffffffffffffffff8111156122c3576122c2611bcc565b5b6122cd8254611ed3565b6122d8828285612214565b600060209050601f83116001811461230b57600084156122f9578287015190505b6123038582612285565b86555061236b565b601f198416612319866120f5565b60005b828110156123415784890151825560018201915060208501945060208101905061231c565b8683101561235e578489015161235a601f891682612267565b8355505b6001600288020188555050505b505050505050565b60006040820190506123886000830185611a16565b6123956020830184611b2c565b9392505050565b7f4e487b7100000000000000000000000000000000000000000000000000000000600052601260045260246000fdfea264697066735822122049cdc1275c52de6886371bbf23570e4beb9ea5acead9a7fb9f2769d87c51ed2b64736f6c63430008180033",
  "linkReferences": {},
  "deployedLinkReferences": {}
}